:020000040800F2
:10000000700700205501000889190008C31700086F
:1000100000000000000000000000000000000000E0
:100020000000000000000000000000008D19000822
:1000300000000000000000008B1900088F19000864
:100040006701000800000000670100086701000860
:1000500067010008670100086701000867010008E0
:10006000000000007507000867010008670100082C
:100070006701000867010008670100080000000030
:10008000670100080000000000000000F9190008E6
:100090000000000067010008670100086701000810
:1000A0000000000067010008000000006701000870
:1000B00000F002F800F03EF80CA030C80838241810
:1000C0002D18A246671EAB4654465D46AC4201D190
:1000D00000F030F87E460F3E0FCCB6460126334284
:1000E00000D0FB1AA246AB4633431847D81E000087
:1000F000F81E0000103A02D378C878C1FAD8520727
:1001000001D330C830C101D504680C6070470000CD
:100110000023002400250026103A01D378C1FBD823
:10012000520700D330C100D50B6070471FB51FBD0B
:1001300010B510BD00F05BFA1146FFF7F7FF01F0B4
:1001400085FE00F073FA03B4FFF7F2FF03BC00F082
:1001500079FA00000748804707480047FEE7FEE7B6
:10016000FEE7FEE7FEE7FEE704480549054A064BC1
:1001700070470000F7190008B10000087001002066
:10018000700700207003002070030020FEB50546B4
:1001900010460C46184373D0AE468C460020AD1A6C
:1001A00001469C4167D36646002701243D46B61AA6
:1001B0009D4102D313463A462124654676462F04D4
:1001C000360C3E432D0CB61A9D4104D3150C1B046E
:1001D0002B4312041034654676462F06360A3E43FA
:1001E0002D0AB61A9D4104D3150E1B022B43120291
:1001F0000834654676462F0736093E432D09B61A60
:100200009D4104D3150F1B012B431201241D65468C
:100210007646AF07B6083E43AD08B61A9D4104D3F3
:10022000950F9B002B439200A41C65467646EF0772
:1002300076083E436D08B61A9D411AD392185B4169
:10024000641C16E00018764665464941B71A9D4180
:100250000191009009D36046B11A98418E468446B8
:10026000009801990025401C6941DD0752082A4386
:100270005B08641EE6D57246634603B0F0BDFFE737
:1002800000200146C046C0462A462346F5E701E065
:1002900004C0091F0429FBD28B0701D50280801CF2
:1002A000C90700D00270704700290BD0C30702D0E5
:1002B0000270401C491E022904D3830702D5028024
:1002C000801C891EE3E70022EEE70022DFE7002220
:1002D00003098B422CD3030A8B4211D300239C4683
:1002E0004EE003460B433CD4002243088B4231D3FB
:1002F00003098B421CD3030A8B4201D394463FE08F
:10030000C3098B4201D3CB01C01A524183098B42EE
:1003100001D38B01C01A524143098B4201D34B01D7
:10032000C01A524103098B4201D30B01C01A52413A
:10033000C3088B4201D3CB00C01A524183088B42C1
:1003400001D38B00C01A524143088B4201D34B00AA
:10035000C01A5241411A00D201465241104670471C
:100360005DE0CA0F00D04942031000D34042534021
:1003700000229C4603098B422DD3030A8B4212D3E1
:10038000FC22890112BA030A8B420CD38901921113
:100390008B4208D3890192118B4204D389013AD050
:1003A000921100E08909C3098B4201D3CB01C01A25
:1003B000524183098B4201D38B01C01A5241430938
:1003C0008B4201D34B01C01A524103098B4201D326
:1003D0000B01C01A5241C3088B4201D3CB00C01A93
:1003E000524183088B4201D38B00C01A5241D9D2AB
:1003F00043088B4201D34B00C01A5241411A00D22C
:100400000146634652415B10104601D34042002B27
:1004100000D54942704763465B1000D3404201B5A6
:100420000020C046C04602BD7047704770470000BC
:10043000F0B5FF252D04C609C209FF2704462E404A
:100440000137CB093E4348402A402B400746002A4B
:100450006BD0002B69D0AA4267D0AB4265D0002890
:1004600000DA32460125ED0529432C43090220021A
:10047000090AD21A4B0C7F24E31A434C000A7C442D
:10048000E35C7D242404121914145B00A218884232
:1004900001D3521C00E0400049420C465C43241149
:1004A0005C43DB016415E318040A5C43C502200DBC
:1004B0000C4644436419250A5D432303EC0C0D46A6
:1004C000654300030019EB184C42A34201D35B18AB
:1004D000401CD4052018002B07D05B00C91804D39A
:1004E000401C002901D1400840003F2189048A4274
:1004F00009D3002A08DC1106090F04D0032149079B
:100500004018C00FC007F0BD012241001206891833
:100510007F2252069142F6D205214907C84201D5F1
:100520009010F0BDFF20C005F0BD002F00DA32466C
:100530001648AA4207D2AB4205D21902090E17D0BB
:10054000F80FC007F0BDFF2563002D06AB42F9D8B8
:100550004900A942F6D8AB4201D1A942F2D0A94242
:1005600001D1002101E061004908D0050843F0BD38
:100570001102090EFBD0FF200243D005F0BD0A4650
:100580000146104654E70000021B00000000C07F37
:100590001F22030C02D10F2200041CD0030E01D134
:1005A0000002083A030F01D10001121F830F01D18D
:1005B0008000921E002801DB4000521ED205511817
:1005C000021251181922904004D3491C002801D16D
:1005D0004908490008467047C10FC90700D040428A
:1005E000012292071143D3E701218907D0E775461D
:1005F00000F024F8AE46050069465346C008C00026
:10060000854618B020B5FFF7AFFD60BC002749084C
:10061000B6460026C0C5C0C5C0C5C0C5C0C5C0C59A
:10062000C0C5C0C5403D49008D46704710B5044661
:10063000C046C0462046FFF786FD10BD0048704703
:100640001001002001491820ABBEFEE72600020081
:10065000704710B50146406A826B50231A420AD196
:10066000816B01225202114381630168CA6812053D
:10067000920F05D020E0006B026B0846904710BD3A
:10068000827E002A18D10A68120715D58A68530796
:100690000122002B09DB4B680C24A3434B60816BC8
:1006A000130299431143816306E0816B20231943B0
:1006B0008163C16B1143C16300F070F910BD10B5C7
:1006C000406A816B402211438163C16B0422114354
:1006D000C16300F065F910BD10B5406A00F05FF924
:1006E00010BD0000F8B50446002000902068816825
:1006F0008907890F012905D10168C90731D1C1686E
:1007000009042ED48168184A1026114001250029B9
:100710001AD1816829438160154814490068FFF7A0
:10072000D6FD00E0401E00900028FBD100F028FC20
:10073000074611E000F024FCC01B02280CD92068F9
:100740000068C043C00707D0A06B3043A063E06BD4
:100750002843E0630120F8BD20680068C043C0075B
:10076000E8D10020F8BD00001700008040420F00D3
:100770001800002010B5024800F064FA10BD000017
:100780008400002010B50446006805494018142173
:10079000FFF79DFD800020640248E06310BD00006B
:1007A000F8FFFDBF0000024030B5056C0124AC40ED
:1007B000C56B6C60046863604368102B036803D0EA
:1007C00099600068C26030BD9A600068C16030BD49
:1007D00072B6FEE7F8B5054604462035287D0026AA
:1007E000012808D001202875206881688907890FB1
:1007F000012908D101E00220F8BD0168C9073CD1F8
:10080000C168090439D4A16BFF220132914302224D
:100810001143A163C1688907890F0091C1688908E4
:100820008900C1602068816892071143816000F0EF
:10083000A7FB074612E000F0A3FBC01B02280DD95E
:1008400020688068002809DAA06B02218843102103
:100850000843A063002028750120F8BD2068806847
:100860000028E8DB2068C168009A1143C160A06BD2
:1008700080088000401CA06304E0A06B2021084396
:10088000A0630126002028753046F8BDF8B5002584
:10089000044620340095227D012A39D00122227598
:1008A00003689E68760767D4384F4E68BE424DD0C5
:1008B0009E6A0F78BA4016439E620123C26A1B07E4
:1008C0009A421FD0012A1DD0022A1BD0032A19D018
:1008D000042A17D0052A15D0062A13D0072A11D0CA
:1008E00002688B6856697607760FB3420AD053695F
:1008F000DB08DB005361006842690B7A5B075B0F22
:100900001A4342610A68102A04D0112A02D038E042
:100910000220F8BD1E488368102A07D001229205E4
:10092000134383600868102803D02AE00122D2050F
:10093000F6E7194817490068FFF7C9FC0A21484340
:1009400000E0401E00900028FBD11AE0986A0E7863
:10095000B240904398620968102901D0112910D142
:100960000B488268102904D0012189058A438260DE
:1009700007E00121C905F9E7816B2022114381635A
:100980000125002020752846F8BD00000110000058
:100990000027014040420F001800002070477047B8
:1009A00070470000F8B500260446002805D0A06B6B
:1009B00025462035002802D007E00120F8BD0020A0
:1009C000E0632875204600F0A9F8A06B1022C0064D
:1009D000002870DB2068816849076CD4A16B130183
:1009E000994302231943A16381688907890F01296B
:1009F00005D10168C9070FD1C16809040CD4C168C9
:100A000018239943A3681943C1602068016963688A
:100A100089008908194301612068C1683D4B19406C
:100A2000C160207E617E8003C9030843A17E4B0321
:100A30001843A36A012B02D001231B0300E000230B
:100A40001843E36818432369022B09D00023184395
:100A50002B79E57E5B0018430123012D02D00AE0CB
:100A60000423F4E7002927D0A16B20252943A163A3
:100A7000E16B1943E163E1690D46FF3DC23D02D0E0
:100A8000256A294308432168CD680543CD600125C7
:100A9000E16A2D07A94213D0012911D002290FD0F4
:100AA00003290DD004290BD0052909D0062907D028
:100AB000072905D010E028E0012109040843DAE7FE
:100AC00021684D69ED08ED004D6121684D69A78DE4
:100AD0007F077F0F3D434D612168C9680E4D294056
:100AE000814207D10020E063A06B80088000401C99
:100AF000A06308E0A06B022188431043A063E06B71
:100B00001843E06301263046F8BDA06B1043A06394
:100B1000F8E700001902FEFFE7FF3F83F0B587B05A
:100B2000054614216846FFF7D0FB1A492868884219
:100B30002ED1194988694E15304388618869304043
:100B400005904A69300202434A6149690027014021
:100B50000591F12000900320019009206946029739
:100B6000C00600F02FF90D480D4C81C4276080208D
:100B7000A6606060276100016761E0600848083C8A
:100B800000F0AEF8002801D0FFF722FE2C6365626A
:100B900007B0F0BD002401400010024008000240F0
:100BA00084000020F7B504460068002580684007EF
:100BB0003DD426462036307D01280AD001273775DE
:100BC000607E012807D02046FFF78CFD050002D08B
:100BD0002EE00220FEBDA06B16490840FF21013126
:100BE0000843A0630020E0633075216B12488862DF
:100BF000216B1248C862216B1148086321681C20D0
:100C00000860206841681022114341602068C16873
:100C10003943C1602168206B4031029B019A00F08A
:100C200089F82068816804221143816000E0022570
:100C30002846FEBDFEF1FFFF53060008D906000856
:100C4000BF060008F0B4C16B0D6801680C6804228F
:100C5000066C1346B3402B420DD063070BD50B68CF
:100C60009B0602D40B6893430B60016C8A40C16BF6
:100C70004A60C16A19E00227B74002462F400123AB
:100C80002032002F15D0A70713D50C68A40604D472
:100C90000C680A25AC430C605370036C0221994028
:100CA000C36B596000211170816A002916D0F0BC15
:100CB00008470827B7402F4210D024070ED50C68EC
:100CC0000E25AC430C60046C1946A140C46B6160F6
:100CD0008363537000211170016BE6E7F0BC70472D
:100CE00070B5040021D00221204620300546417015
:100CF000226811680E48A36801406068266918439D
:100D0000E3683343184363691843A3691843E369ED
:100D10001843084310602046FFF734FD0021A1630B
:100D2000012068702970084670BD012070BD000068
:100D30000FC0FFFFF8B504468C462030017800252F
:100D4000012909D00126067041780027012905D024
:100D5000077002252846F8BD0220F8BD0221417027
:100D6000A763206801684908490001606146204680
:100D7000FFF71AFDE06A00282068016802D00E2201
:100D8000114306E00A221143016020680168042231
:100D9000914301602068016831430160DAE7000097
:100DA00070B5044600F0ECF80546601C02D004481B
:100DB0000078241800F0E4F8401BA042FAD370BD7C
:100DC0000C000020F8B5002303240125BAE02E46CC
:100DD0009E40B44632407CD00E79B607B60F012E45
:100DE00001D0022E17D186682746B6465E00B7406E
:100DF00000967646BE43B646CF68009EB74076461C
:100E00003743876046686746BE430F79FF06FF0F8A
:100E10009F40374347600E79F643B6070ED0C66849
:100E20002746B4465E00B646B7406646BE43B44663
:100E30008F687646B74066463743C7600E79B60777
:100E4000B60F022E14D1DE08B60036180096366AA8
:100E50005F07B446FE0E0F27B646B7406646BE4350
:100E6000B4460F697646B74066463743009E376200
:100E700006682746B4465E00B646B7406646BE439F
:100E80000F79B446BF07BF0F7646B7406646374373
:100E900007604E68B603B60F53D02D4FBE692E4380
:100EA000BE61BE699F08F607F60F2A4EBF00BE1945
:100EB0000096B6680F27B4469E07360FB646B74071
:100EC0006646BE430927FF06B446B84202D1002752
:100ED00010E036E0204FB84201D101270AE01F4F51
:100EE000B84201D1022705E01D4FB84201D10327C6
:100EF00000E005277646B74066463743009EB76058
:100F0000184EB6684F689643FF0200D51643154F3A
:100F1000BE60FE684F689643BF0200D51643114F6E
:100F2000FE607E684F689643BF0300D516430D4FA1
:100F30007E603E684F689643FF0300D51643094A1A
:100F400016605B1C0A681646DE4000D03FE7F8BD1D
:100F50000010024000000140000400480008004862
:100F6000000C0048000401400069084000D0012046
:100F70007047002A01D0816170478162704700008C
:100F800001488068704700000C000020024881681A
:100F900002788918816070470C00002010B506485F
:100FA0000168102211430160032000F007F800F0EF
:100FB00027F8002010BD00000020024070B5044654
:100FC0000D4D7D202978C000FFF781F901460B48BF
:100FD0000068FFF77CF900F0A9FA002809D1042C79
:100FE00007D200222146401E00F02AF800206C6043
:100FF00070BD012070BD00000C0000201800002012
:1010000008B5084881690122114381618169114055
:101010000091C26901040A43C261C069084000909E
:1010200008BD000000100240002805DBC106C90E03
:1010300001208840014908607047000000E100E09D
:1010400010B500F03DFD10BDF8B50F46060059D0B3
:101050003A4D2868C007C00FB84209D22868400836
:101060004000384328602868C007C00FB84249D103
:101070003068334C81070CD5400704D560680721E0
:101080000902084360606068F0218843B168084342
:1010900060603078C00726D0706801280ED02168C3
:1010A00002280ED0890700292CDA61688908890096
:1010B00001436160FFF764FF00900DE02168890340
:1010C000F1E78901EFE7FFF75BFF0099411A1D483F
:1010D000814201D90320F8BD60680C210840716885
:1010E00089008842EFD12868C007C00FB8420BD9E9
:1010F000286840084000384328602868C007C00FAF
:10110000B84201D00120F8BD3078400706D56068AC
:10111000072109028843F1680843606000F018F86D
:101120006168094A0906090F515CC840074908600F
:101130000320FFF743FF0020F8BD0000002002401D
:101140000010024088130000741F000818000020DF
:1011500010B5104A51680C200B4603400E48042B72
:1011600017D0082B15D18B020C4C1B0FE45CD26AF4
:101170000A4B1207120F10339A5CC90305D50023DE
:101180001946FFF703F8214601E02046044900F024
:101190007FFC10BD0010024000127A00541F0008AE
:1011A00000093D00FEB5040070D02078DC4DC0077A
:1011B0004AD068680007800F012807D068680007D8
:1011C000800F022809D16868C00306D5286880030B
:1011D0003AD560680028E7D036E06168012914D06C
:1011E00001208004002901D0052914D02A6801219A
:1011F00009048A432A6029688143296060680028BD
:1012000016D0FFF7BDFE06460EE02868012109044E
:1012100008432860F2E7296801432960F5E7FFF7F2
:10122000AFFE801B64286ED828688003F7D50BE0DA
:10123000FFF7A6FE064604E0FFF7A2FE801B642827
:10124000F1D828688003F7D4207801268007002889
:101250003CDA68680007800F07D068680007800FD5
:10126000022809D16868C00306D42868800716D50B
:10127000E06801280AD112E0E0680028286816D04A
:1012800030432860FFF77CFE074605E043E1FFF7A7
:1012900077FEC01B0228C6D828688007F7D52868C3
:1012A000F82188432169C900084328600EE04008FE
:1012B00040002860FFF764FE074604E0FFF760FE89
:1012C000C01B0228AFD828688007F7D42078000711
:1012D00022D5E0690028686A0ED030436862FFF7C3
:1012E0004FFE074604E0FFF74BFEC01B02289AD8CA
:1012F000686A8007F7D50FE0400840006862FFF792
:101300003FFE074605E09DE0FFF73AFEC01B0228BE
:1013100089D8686A8007F7D4207804274007002816
:1013200060DA00200190E869C00008D4E969B806D5
:101330000143E961E9690140012000910190794888
:101340000168C90511D40168821511430160FFF7D6
:1013500017FE009005E0FFF713FE0099401A64287D
:1013600070D870480068C005F5D5A06801280AD07B
:10137000002801D0052810D0286A400840002862C3
:10138000286AB84301E0286A30432862A068002830
:1013900012D0FFF7F5FD00900AE0286A3843286272
:1013A000F1E7FFF7EDFD0099411A5F48814249D806
:1013B000286A8007F5D50DE0FFF7E2FD009006E012
:1013C000FFF7DEFD0099411A574881423AD8286A52
:1013D0008007F5D40198002804D0E96901200007AE
:1013E0008143E9612078C00635D5606901280CD0B9
:1013F000401D686B23D038436863686B4008400029
:101400006863FFF7BDFD064622E0686B38436863FA
:10141000686B30436863FFF7B3FD064604E0FFF7EF
:10142000AFFD801B02285BD8686B8007F7D5686B1F
:10143000F8218843A169C900084368630BE0B843F9
:101440006863F4E74CE0FFF79BFD801B022847D858
:10145000686B8007F7D4206A00285ED069680907A6
:10146000890F022942D0012636060228286805D0B5
:10147000B0432860FFF784FD044633E0B0432860A2
:10148000FFF77EFD074604E0FFF77AFDC01B022848
:1014900026D828688001F7D4E86AE16A00090001CB
:1014A0000843E862616AA06A084369683D22120441
:1014B000914308436860286830432860FFF760FD67
:1014C000044604E0FFF75CFD001B022808D82868EA
:1014D0008001F7D521E0FFF753FD001B022801D959
:1014E0000320FEBD28688001F5D416E00128F8D05D
:1014F0006868E96A01221204636A02409A420AD1CA
:101500000907E26A090F914205D10F2189040840B9
:10151000A16A884201D00120FEBD0020FEBD00006E
:10152000001002400070004088130000094910B507
:10153000401E884201D9012010BD074C6061032183
:10154000081F00F0BDFA0020A061072020610020E4
:1015500010BD0000FFFFFF0000E000E07047704793
:1015600070B5040005D025462035687F002802D0DC
:1015700006E0012070BD00202877204600F014F816
:1015800002206877211D206800F03EFA01204034D7
:10159000A071A877E87720706070A070E07020716B
:1015A00060716877002070BD08B5006809498842FD
:1015B0000FD10948C26981150A43C261C06900227E
:1015C0000840009011461320FFF73AFD1320FFF763
:1015D0002BFD08BD002000400010024001462031D4
:1015E0004A7F012A01D00120704702224A7702680F
:1015F000D36801210B43D3600068084A904202D0AF
:10160000074A904204D182685207520F062A02D03C
:1016100002680A430260002070470000002C01406D
:10162000000400400168CA6852085200CA6001689C
:101630000A6A084B1A4207D10A6A9B101A4203D160
:101640000A68520852000A600121203041770020C8
:1016500070470000111100007047F8B5044600689B
:10166000C66805690027A907002913DAB10711D553
:10167000F91E0161012020772068806980072046DB
:1016800002D0FFF7E9FF04E000F07BF8204600F00D
:1016900079F82777680716D5700714D504202168D4
:1016A000C043086102202077206880698005800F90
:1016B000204602D0FFF7D0FF04E000F062F8204699
:1016C00000F060F82777280715D5300713D50820D4
:1016D0002168C0430861042020772068C069800722
:1016E000204602D0FFF7B8FF04E000F04AF8204699
:1016F00000F048F82777E80616D5F00614D5102034
:101700002168C0430861082020772068C0698005EF
:10171000800F204602D0FFF79FFF04E000F031F871
:10172000204600F02FF82777E80708D0F00706D00A
:1017300001202168C0430861204600F025F82806F2
:1017400008D5300606D580202168C04308612046B0
:10175000FFF704FF680608D5700606D5402021680B
:10176000C0430861204600F02BF8A80608D5B00653
:1017700006D520202168C04308612046FFF7EFFE10
:10178000F8BD7047704700000B49884213D10B48E1
:101790007D228188D200491C89B2818091420AD37E
:1017A00000218180C278521CD2B2C2700F2A02D3AB
:1017B000C170012141707047C80000200000002066
:1017C0007047FEE73EB500242A492B480094019457
:1017D000029412C0046008224460C260012181604A
:1017E000047444748474C474FF22C23284614261FC
:1017F00002461832147101620838FFF7D3F8002846
:1018000001D0FEF7E5FF01200003009401900524BC
:10181000694619480294FFF739F8002801D0FEF70D
:10182000D7FF0420009069461348FFF72FF80028DF
:1018300001D0FEF7CDFF69460F480094FFF726F868
:10184000002801D0FEF7C4FF0620009069460A4830
:10185000FFF71CF8002801D0FEF7BAFF0720009020
:1018600069460548FFF712F8002801D0FEF7B0FFDF
:101870003EBD0000002401404400002008B5084897
:1018800041690122114341614069104000220090EA
:1018900011460920FFF7D4FB0920FFF7C5FB08BD5F
:1018A00000100240F0B587B014216846FEF70DFD28
:1018B00027484269012149040A43426142690A40BA
:1018C0000592426949000A4342614069092708407C
:1018D0004E12FF060590002231463846FFF749FBBD
:1018E0002721012289023846FFF743FB0122F82114
:1018F0001848FFF73EFB012400250094694615486F
:1019000001950294FFF75EFA0220009602900326EA
:101910000194694638460396FFF754FA072080027F
:10192000009001946946039502943846FFF74AFAFD
:10193000E0036A4671C269463846FFF743FAF82069
:101940006A4671C269460348FFF73CFA07B0F0BD2A
:10195000001002400004004810B50A480849016020
:10196000FF21E03141600021816063220161C2609A
:101970008161FFF7F5FD002801D0FEF729FF10BDBA
:1019800000200040C8000020FEE77047704710B5F7
:10199000FFF7FCFA10BD30B591B030216846FEF774
:1019A00094FC002412200F94009001200D940390C9
:1019B000059010200E94049006900520C004022586
:1019C0000A900C94089509940B946846FFF7EAFB7B
:1019D000002801D072B6FEE707200C900E9401217A
:1019E0000D950F940CA8FFF72FFB002801D072B6BD
:1019F000FEE711B030BD704710B50248FFF72DFE6D
:101A000010BD0000C800002070B502681B4B1C4EC2
:101A1000984201D0B04203D17024A2434C682243C3
:101A2000184C194D984208D0B04206D0174EB0421B
:101A300003D0A04201D0A84204D103263602B2430B
:101A4000CE6832438026B2434E69324302608A68D0
:101A5000C2620A688262984203D0A04201D0A842C2
:101A600001D109690163012141610169C90703D0FD
:101A7000016949084900016170BD0000002C014066
:101A800000040040004401400048014000200040A4
:101A9000F8B5040C8BB2264682B25E430D0C10469C
:101AA000370C5843360480190021794116466E439D
:101AB000370C36048019794126466E438919F8BDE2
:101AC0008307FF22DB0E9A408907090E9940002800
:101AD00008DB830809489B001B18186890430843DB
:101AE000186070470007000F0838830804489B00FF
:101AF0001B18D86990430843D861704700E400E0A0
:101B000000ED00E0F8B53E4D2868FEF76DFD3D4E56
:101B10003146FEF78DFC3C4F394600F0C3F93B4996
:101B200000F0C0F93A49FEF783FC2C4614342060DB
:101B30006868FEF759FD3146FEF77AFC394600F039
:101B4000B1F96060A868FEF74FFD3146FEF770FC02
:101B5000394600F0A7F9A060E868FEF745FD314678
:101B6000FEF766FC394600F09DF9E0602869FEF753
:101B70003BFD3146FEF75CFC394600F093F92061ED
:101B8000052229462348FFF70DF80127FF26FF020B
:101B900009252069B6057900ED06B04224DD002252
:101BA0002846FFF7E6F91C492068884215DD1B49E5
:101BB000E068884206DA012239462846FFF7D9F95B
:101BC000002205E0002239462846FFF7D2F901221B
:101BD000012189022846FFF7CCF9A068B04202DD56
:101BE0000F4920688860F8BD01222846FFF7C1F937
:101BF000012291022846FFF7BCF901223946E9E7A4
:101C00001C00002000F07F45333353403333E04263
:101C10009A994141440000200000A041CDCC4C3DA8
:101C200000000020F8B55649574D564A086800266E
:101C30006F01564C90421BDB002240212846FFF7E3
:101C400098F9002220212846FFF793F9002210215D
:101C50002846FFF78EF9092000223946C006FFF713
:101C600088F9002208212846FFF783F9A67013E0BF
:101C7000474A904212DB002240212846FFF779F9BB
:101C8000002220212846FFF774F90022102128465F
:101C9000FFF76FF9002223E02670F8BD3D4A90421D
:101CA0000BDB002240212846FFF763F900222021A8
:101CB0002846FFF75EF900220DE0374A90421ADB12
:101CC000002240212846FFF754F90022202128460F
:101CD000FFF74FF9012210212846FFF74AF90122A8
:101CE00009203946C006FFF744F901220821284699
:101CF000FFF73FF9D0E70E46284988421ADB002259
:101D000040212846FFF735F9012220212846FFF718
:101D100030F9012210212846FFF72BF90920012272
:101D20003946C006FFF725F9012208212846FFF7AA
:101D300020F9F8BD012240212846FFF71AF90122B7
:101D400020212846FFF715F9012210212846FFF728
:101D500010F9092001223946C006FFF70AF90122CD
:101D600008212846FFF705F9FF21306989058842D7
:101D7000DFDAA0780028DCD101202070F8BD000057
:101D800030000020CDCCC4410004004800000020F9
:101D9000C3F5C041F628BC41295CB7419A99B141CD
:101DA000F8B51A4C00252078012819482BD0FFF7E8
:101DB00039FCE570A5806078012823D14602092707
:101DC000FF06012231463846FFF7D3F8FF20913055
:101DD000FEF7E6FF002231463846FFF7CAF8FF203B
:101DE0009130FEF7DDFF012231463846FFF7C1F89A
:101DF000FF209130FEF7D4FF002231463846FFF72E
:101E0000B8F86570F8BDFFF7E9FBD4E700000020E3
:101E1000C800002010B50B4C01212046FFF7A4F8A4
:101E200000280DD10A20FEF7BBFF01212046FFF755
:101E30009BF8002804D10448012181700021017021
:101E400010BD00000004004800000020FFF7A6F8C5
:101E5000FFF7A1FDFFF726FDFFF710FDFFF7B2FC2E
:101E6000FFF77AFD0C48FEF7B5FC05220B490A483E
:101E7000FEF798FE002280210948FFF77AF8C82073
:101E8000FEF78EFFFFF73EFEFFF7C4FFFFF7CAFE27
:101E9000FFF786FFF6E70000440000201C0000204A
:101EA0000004004870B5420064414B005C41120ED2
:101EB00039D01B0E38D0FF2A3CD0FF2B3AD040023D
:101EC0004902400A490A060045184E43000A090A19
:101ED000D2184843ED017F3A0104731A4019190CD6
:101EE0004318990F04D001215B0849075B1A521C63
:101EF000D80904D3401CF50301D19D0607D0FF2A61
:101F000008D2D50506D0E4072043401970BD01254D
:101F1000A843F4E7002A01DCE00770BD2402FF209B
:101F20002043C00570BD1B0EFF2A03D0FF2B01D03C
:101F3000E00770BDFF2645003606B54206D84D00C5
:101F4000B54203D8D218FF2A00D0E7E7004870BD99
:101F50000000C07F02030405060708090A0B0C0DE8
:101F60000E0F10100102030405060708090A0B0CE6
:101F70000D0E0F100000000000000000010203041D
:101F8000060708098182838485868788898B8C8DE2
:101F90008E8F919293959697999A9C9D9FA0A2A3BC
:101FA000A5A7A8AAACAEB0B2B3B5B7B9BCBEC0C203
:101FB000C5C7C9CCCED1D4D7D9DCDFE2E6E9ECF095
:101FC000F3F7FAFEE41F0008000000201C000000E8
:101FD000F4000008002000081C0000205407000046
:101FE00010010008000000000000000000000000D8
:101FF00001000000040000000000000000127A0050
:04000005080000B13E
:00000001FF
